{
  "contractName": "Music",
  "abi": [
    {
      "inputs": [],
      "payable": false,
      "stateMutability": "nonpayable",
      "type": "constructor"
    },
    {
      "constant": true,
      "inputs": [],
      "name": "lastArtist",
      "outputs": [
        {
          "internalType": "uint256",
          "name": "",
          "type": "uint256"
        }
      ],
      "payable": false,
      "stateMutability": "view",
      "type": "function"
    },
    {
      "constant": true,
      "inputs": [],
      "name": "lastSong",
      "outputs": [
        {
          "internalType": "uint256",
          "name": "",
          "type": "uint256"
        }
      ],
      "payable": false,
      "stateMutability": "view",
      "type": "function"
    },
    {
      "constant": true,
      "inputs": [],
      "name": "lastUser",
      "outputs": [
        {
          "internalType": "uint256",
          "name": "",
          "type": "uint256"
        }
      ],
      "payable": false,
      "stateMutability": "view",
      "type": "function"
    },
    {
      "constant": true,
      "inputs": [],
      "name": "owner",
      "outputs": [
        {
          "internalType": "address",
          "name": "",
          "type": "address"
        }
      ],
      "payable": false,
      "stateMutability": "view",
      "type": "function"
    },
    {
      "constant": true,
      "inputs": [],
      "name": "getRole",
      "outputs": [
        {
          "internalType": "enum Music.ROLE",
          "name": "",
          "type": "uint8"
        }
      ],
      "payable": false,
      "stateMutability": "view",
      "type": "function"
    },
    {
      "constant": true,
      "inputs": [
        {
          "internalType": "string",
          "name": "_hash",
          "type": "string"
        }
      ],
      "name": "checkSongisUnique",
      "outputs": [
        {
          "internalType": "uint256",
          "name": "",
          "type": "uint256"
        }
      ],
      "payable": false,
      "stateMutability": "view",
      "type": "function"
    },
    {
      "constant": false,
      "inputs": [
        {
          "internalType": "string",
          "name": "name",
          "type": "string"
        }
      ],
      "name": "userRegister",
      "outputs": [],
      "payable": false,
      "stateMutability": "nonpayable",
      "type": "function"
    },
    {
      "constant": false,
      "inputs": [
        {
          "internalType": "string",
          "name": "_name",
          "type": "string"
        }
      ],
      "name": "artistRegister",
      "outputs": [],
      "payable": true,
      "stateMutability": "payable",
      "type": "function"
    },
    {
      "constant": false,
      "inputs": [
        {
          "internalType": "uint256",
          "name": "_cost",
          "type": "uint256"
        },
        {
          "internalType": "string",
          "name": "_name",
          "type": "string"
        },
        {
          "internalType": "uint256",
          "name": "_genre",
          "type": "uint256"
        },
        {
          "internalType": "string",
          "name": "songHash",
          "type": "string"
        },
        {
          "internalType": "string",
          "name": "ipfshash",
          "type": "string"
        }
      ],
      "name": "artistUploadSong",
      "outputs": [],
      "payable": false,
      "stateMutability": "nonpayable",
      "type": "function"
    },
    {
      "constant": true,
      "inputs": [],
      "name": "userDetail",
      "outputs": [
        {
          "internalType": "uint256",
          "name": "",
          "type": "uint256"
        },
        {
          "internalType": "string",
          "name": "",
          "type": "string"
        }
      ],
      "payable": false,
      "stateMutability": "view",
      "type": "function"
    },
    {
      "constant": true,
      "inputs": [
        {
          "internalType": "uint256",
          "name": "_artistId",
          "type": "uint256"
        }
      ],
      "name": "artistDetail",
      "outputs": [
        {
          "internalType": "string",
          "name": "",
          "type": "string"
        },
        {
          "internalType": "uint256[]",
          "name": "",
          "type": "uint256[]"
        }
      ],
      "payable": false,
      "stateMutability": "view",
      "type": "function"
    },
    {
      "constant": true,
      "inputs": [
        {
          "internalType": "uint256",
          "name": "songId",
          "type": "uint256"
        }
      ],
      "name": "songDetails",
      "outputs": [
        {
          "internalType": "uint256",
          "name": "_artistId",
          "type": "uint256"
        },
        {
          "internalType": "uint256",
          "name": "id",
          "type": "uint256"
        },
        {
          "internalType": "string",
          "name": "name",
          "type": "string"
        },
        {
          "internalType": "uint256",
          "name": "cost",
          "type": "uint256"
        },
        {
          "internalType": "uint256",
          "name": "releaseDate",
          "type": "uint256"
        },
        {
          "internalType": "uint256",
          "name": "genre",
          "type": "uint256"
        }
      ],
      "payable": false,
      "stateMutability": "view",
      "type": "function"
    },
    {
      "constant": false,
      "inputs": [
        {
          "internalType": "uint256",
          "name": "_artistId",
          "type": "uint256"
        }
      ],
      "name": "donate",
      "outputs": [],
      "payable": true,
      "stateMutability": "payable",
      "type": "function"
    }
  ],
  "bytecode": "0x608060405234801561001057600080fd5b50336000806101000a81548173ffffffffffffffffffffffffffffffffffffffff021916908373ffffffffffffffffffffffffffffffffffffffff16021790555060006003819055506000600181905550600060028190555061179e806100786000396000f3fe6080604052600436106100c25760003560e01c8063aa2f043b1161007f578063e153270e11610059578063e153270e1461054d578063f14faf6f146105e4578063fbf6938f14610612578063fde0817414610756576100c2565b8063aa2f043b146103fb578063abffc8a6146104f7578063b0b95fa214610522576100c2565b80633847121f146100c757806343cb94d11461019e5780637c8e5bf514610217578063881d97dc1461024257806388aa1d131461030a5780638da5cb5b146103a4575b600080fd5b3480156100d357600080fd5b50610100600480360360208110156100ea57600080fd5b810190808035906020019092919050505061078f565b6040518087815260200186815260200180602001858152602001848152602001838152602001828103825286818151815260200191508051906020019080838360005b8381101561015e578082015181840152602081019050610143565b50505050905090810190601f16801561018b5780820380516001836020036101000a031916815260200191505b5097505050505050505060405180910390f35b610215600480360360208110156101b457600080fd5b81019080803590602001906401000000008111156101d157600080fd5b8201836020820111156101e357600080fd5b8035906020019184600183028401116401000000008311171561020557600080fd5b909192939192939050505061087b565b005b34801561022357600080fd5b5061022c610c4f565b6040518082815260200191505060405180910390f35b34801561024e57600080fd5b506103086004803603602081101561026557600080fd5b810190808035906020019064010000000081111561028257600080fd5b82018360208201111561029457600080fd5b803590602001918460018302840111640100000000831117156102b657600080fd5b91908080601f016020809104026020016040519081016040528093929190818152602001838380828437600081840152601f19601f820116905080830192505050505050509192919290505050610c55565b005b34801561031657600080fd5b5061038e6004803603602081101561032d57600080fd5b810190808035906020019064010000000081111561034a57600080fd5b82018360208201111561035c57600080fd5b8035906020019184600183028401116401000000008311171561037e57600080fd5b9091929391929390505050610dae565b6040518082815260200191505060405180910390f35b3480156103b057600080fd5b506103b9610de3565b604051808273ffffffffffffffffffffffffffffffffffffffff1673ffffffffffffffffffffffffffffffffffffffff16815260200191505060405180910390f35b34801561040757600080fd5b506104346004803603602081101561041e57600080fd5b8101908080359060200190929190505050610e08565b604051808060200180602001838103835285818151815260200191508051906020019080838360005b8381101561047857808201518184015260208101905061045d565b50505050905090810190601f1680156104a55780820380516001836020036101000a031916815260200191505b50838103825284818151815260200191508051906020019060200280838360005b838110156104e15780820151818401526020810190506104c6565b5050505090500194505050505060405180910390f35b34801561050357600080fd5b5061050c610f2e565b6040518082815260200191505060405180910390f35b34801561052e57600080fd5b50610537610f34565b6040518082815260200191505060405180910390f35b34801561055957600080fd5b50610562610f3a565b6040518083815260200180602001828103825283818151815260200191508051906020019080838360005b838110156105a857808201518184015260208101905061058d565b50505050905090810190601f1680156105d55780820380516001836020036101000a031916815260200191505b50935050505060405180910390f35b610610600480360360208110156105fa57600080fd5b8101908080359060200190929190505050611067565b005b34801561061e57600080fd5b50610754600480360360a081101561063557600080fd5b81019080803590602001909291908035906020019064010000000081111561065c57600080fd5b82018360208201111561066e57600080fd5b8035906020019184600183028401116401000000008311171561069057600080fd5b909192939192939080359060200190929190803590602001906401000000008111156106bb57600080fd5b8201836020820111156106cd57600080fd5b803590602001918460018302840111640100000000831117156106ef57600080fd5b90919293919293908035906020019064010000000081111561071057600080fd5b82018360208201111561072257600080fd5b8035906020019184600183028401116401000000008311171561074457600080fd5b90919293919293905050506110e7565b005b34801561076257600080fd5b5061076b6114e6565b6040518082600281111561077b57fe5b60ff16815260200191505060405180910390f35b60008060606000806000806007600089815260200190815260200160002090508060010154955080600001549650806005018054600181600116156101000203166002900480601f0160208091040260200160405190810160405280929190818152602001828054600181600116156101000203166002900480156108555780601f1061082a57610100808354040283529160200191610855565b820191906000526020600020905b81548152906001019060200180831161083857829003601f168201915b505050505094508060020154935080600301549150806004015492505091939550919395565b66b1a2bc2ec5000034146108f7576040517f08c379a00000000000000000000000000000000000000000000000000000000081526004018080602001828103825260178152602001807f41727469737420526567697374726174696f6e2066656500000000000000000081525060200191505060405180910390fd5b6000600560003373ffffffffffffffffffffffffffffffffffffffff1673ffffffffffffffffffffffffffffffffffffffff16815260200190815260200160002054146109ac576040517f08c379a00000000000000000000000000000000000000000000000000000000081526004018080602001828103825260108152602001807f416c72656164792072656769737465720000000000000000000000000000000081525060200191505060405180910390fd5b6002600081548092919060010191905055506000600660003373ffffffffffffffffffffffffffffffffffffffff1673ffffffffffffffffffffffffffffffffffffffff168152602001908152602001600020600001541415610a5757610a5682828080601f016020809104026020016040519081016040528093929190818152602001838380828437600081840152601f19601f82011690508083019250505050505050610c55565b5b610a5f611591565b6040518060a001604052806002548152602001600660003373ffffffffffffffffffffffffffffffffffffffff1673ffffffffffffffffffffffffffffffffffffffff1681526020019081526020016000206000015481526020013373ffffffffffffffffffffffffffffffffffffffff16815260200184848080601f016020809104026020016040519081016040528093929190818152602001838380828437600081840152601f19601f8201169050808301925050505050505081526020016000604051908082528060200260200182016040528015610b505781602001602082028038833980820191505090505b508152509050600254600560003373ffffffffffffffffffffffffffffffffffffffff1673ffffffffffffffffffffffffffffffffffffffff1681526020019081526020016000208190555080600460006002548152602001908152602001600020600082015181600001556020820151816001015560408201518160020160006101000a81548173ffffffffffffffffffffffffffffffffffffffff021916908373ffffffffffffffffffffffffffffffffffffffff1602179055506060820151816003019080519060200190610c299291906115d6565b506080820151816004019080519060200190610c46929190611656565b50905050505050565b60035481565b6000600660003373ffffffffffffffffffffffffffffffffffffffff1673ffffffffffffffffffffffffffffffffffffffff1681526020019081526020016000206000015414610d0d576040517f08c379a00000000000000000000000000000000000000000000000000000000081526004018080602001828103825260138152602001807f416c72656164792072656769737465726564210000000000000000000000000081525060200191505060405180910390fd5b600160008154809291906001019190505550610d276116a3565b6040518060400160405280600154815260200183815250905080600660003373ffffffffffffffffffffffffffffffffffffffff1673ffffffffffffffffffffffffffffffffffffffff168152602001908152602001600020600082015181600001556020820151816001019080519060200190610da69291906115d6565b509050505050565b600060088383604051808383808284378083019250505092505050908152602001604051809103902060010154905092915050565b6000809054906101000a900473ffffffffffffffffffffffffffffffffffffffff1681565b6060806004600084815260200190815260200160002060030160046000858152602001908152602001600020600401818054600181600116156101000203166002900480601f016020809104026020016040519081016040528092919081815260200182805460018160011615610100020316600290048015610ecc5780601f10610ea157610100808354040283529160200191610ecc565b820191906000526020600020905b815481529060010190602001808311610eaf57829003601f168201915b5050505050915080805480602002602001604051908101604052809291908181526020018280548015610f1e57602002820191906000526020600020905b815481526020019060010190808311610f0a575b5050505050905091509150915091565b60025481565b60015481565b60006060600660003373ffffffffffffffffffffffffffffffffffffffff1673ffffffffffffffffffffffffffffffffffffffff16815260200190815260200160002060000154600660003373ffffffffffffffffffffffffffffffffffffffff1673ffffffffffffffffffffffffffffffffffffffff168152602001908152602001600020600101808054600181600116156101000203166002900480601f0160208091040260200160405190810160405280929190818152602001828054600181600116156101000203166002900480156110585780601f1061102d57610100808354040283529160200191611058565b820191906000526020600020905b81548152906001019060200180831161103b57829003601f168201915b50505050509050915091509091565b6004600082815260200190815260200160002060020160009054906101000a900473ffffffffffffffffffffffffffffffffffffffff1673ffffffffffffffffffffffffffffffffffffffff166108fc349081150290604051600060405180830381858888f193505050501580156110e3573d6000803e3d6000fd5b5050565b6000600560003373ffffffffffffffffffffffffffffffffffffffff1673ffffffffffffffffffffffffffffffffffffffff16815260200190815260200160002054141561119d576040517f08c379a000000000000000000000000000000000000000000000000000000000815260040180806020018281038252600e8152602001807f4e6f7420616e206172746973747300000000000000000000000000000000000081525060200191505060405180910390fd5b6000600885856040518083838082843780830192505050925050509081526020016040518091039020600101541461123d576040517f08c379a00000000000000000000000000000000000000000000000000000000081526004018080602001828103825260158152602001807f63616e742075706c6f6164206475706c6963617465000000000000000000000081525060200191505060405180910390fd5b600360008154809291906001019190505550600060046000600560003373ffffffffffffffffffffffffffffffffffffffff1673ffffffffffffffffffffffffffffffffffffffff16815260200190815260200160002054815260200190815260200160002090508060040160035490806001815401808255809150509060018203906000526020600020016000909192909190915055506040518060e001604052808260000154815260200160035481526020018a815260200187815260200142815260200189898080601f016020809104026020016040519081016040528093929190818152602001838380828437600081840152601f19601f82011690508083019250505050505050815260200184848080601f016020809104026020016040519081016040528093929190818152602001838380828437600081840152601f19601f82011690508083019250505050505050815250600760006003548152602001908152602001600020600082015181600001556020820151816001015560408201518160020155606082015181600301556080820151816004015560a08201518160050190805190602001906113f99291906115d6565b5060c08201518160060190805190602001906114169291906115d6565b509050506007600060035481526020019081526020016000206008868660405180838380828437808301925050509250505090815260200160405180910390206000820154816000015560018201548160010155600282015481600201556003820154816003015560048201548160040155600582018160050190805460018160011615610100020316600290046114af9291906116bd565b50600682018160060190805460018160011615610100020316600290046114d79291906116bd565b50905050505050505050505050565b600080600560003373ffffffffffffffffffffffffffffffffffffffff1673ffffffffffffffffffffffffffffffffffffffff168152602001908152602001600020541415611589576000600660003373ffffffffffffffffffffffffffffffffffffffff1673ffffffffffffffffffffffffffffffffffffffff168152602001908152602001600020600001541415611581576000611584565b60025b61158c565b60015b905090565b6040518060a001604052806000815260200160008152602001600073ffffffffffffffffffffffffffffffffffffffff16815260200160608152602001606081525090565b828054600181600116156101000203166002900490600052602060002090601f016020900481019282601f1061161757805160ff1916838001178555611645565b82800160010185558215611645579182015b82811115611644578251825591602001919060010190611629565b5b5090506116529190611744565b5090565b828054828255906000526020600020908101928215611692579160200282015b82811115611691578251825591602001919060010190611676565b5b50905061169f9190611744565b5090565b604051806040016040528060008152602001606081525090565b828054600181600116156101000203166002900490600052602060002090601f016020900481019282601f106116f65780548555611733565b8280016001018555821561173357600052602060002091601f016020900482015b82811115611732578254825591600101919060010190611717565b5b5090506117409190611744565b5090565b61176691905b8082111561176257600081600090555060010161174a565b5090565b9056fea265627a7a723158205f6ea917d1ae17b49afb41af48a9456360a7247ae98f127450a6b9b0a6ba919264736f6c63430005100032",
  "source": "// SPDX-License-Identifier: GPL-3.0\npragma solidity ^0.5.0;\n\ncontract Music{   \n    address public owner;\n    uint public lastUser;\n    uint public lastArtist;\n    uint public lastSong;\n\n    struct User{\n        uint uId;\n        string name;\n    }\n\n    struct Artist{\n        uint aId;\n        uint uId;\n        address payable artistAddress;\n        string name;\n        uint[] songsUploaded;\n    }\n\n    struct Song{\n        uint aId;\n        uint sId;\n        uint cost;\n        uint genre;\n        uint releaseDate;\n        string songName;\n        string songhash;\n    }\n\n    enum ROLE{UNREGISTERED,ARTIST,USER}      //keep track of type of user\n\n    mapping(uint => Artist) idToArtist;\n    mapping(address => uint)artistId;\n    mapping (address => User) userId;\n    mapping (uint => Song) idToSong;\n    mapping(string => Song) hashToSong;     //to keep track of uploads\n\n    modifier onlyUser{\n        require(userId[msg.sender].uId != 0,\"Not a user\");\n        _;\n    }\n\n    modifier onlyArtist{\n        require(artistId[msg.sender] !=0,\"Not an artists\");\n        _;\n    }\n\n    constructor() public{\n        owner = msg.sender;\n        lastSong = 0;\n        lastUser = 0;\n        lastArtist = 0;\n    }\n    \n    //returns type of user\n    function getRole() external view returns(ROLE) {\n        return ((artistId[msg.sender]!=0) ? ROLE.ARTIST : (userId[msg.sender].uId != 0) ? ROLE.USER : ROLE.UNREGISTERED);\n    }\n\n    function checkSongisUnique(string calldata _hash) external view returns(uint){\n        return hashToSong[_hash].sId;\n    }\n\n    function userRegister(string memory name) public{\n        require(userId[msg.sender].uId == 0,\"Already registered!\");\n        lastUser++;\n        User memory newUser = User(lastUser,name);\n       userId[msg.sender] = newUser;\n    }\n\n    function artistRegister(string calldata _name) external payable{\n        require(msg.value == 0.05 ether, \"Artist Registration fee\");\n        require(artistId[msg.sender] == 0,\"Already register\");\n        lastArtist++;\n\n        //every artists is also a user\n        if(userId[msg.sender].uId == 0){\n            userRegister(_name);\n        }\n\n        Artist memory newArtist = Artist(lastArtist,userId[msg.sender].uId,msg.sender,_name,new uint[](0));\n        artistId[msg.sender] = lastArtist;\n        idToArtist[lastArtist] = newArtist;\n    }\n\n    function artistUploadSong(uint _cost,string calldata _name,uint _genre,string calldata songHash,string calldata ipfshash) external onlyArtist{\n        require(hashToSong[songHash].sId == 0,\"cant upload duplicate\");\n        lastSong++;\n\n        Artist storage artistInstance = idToArtist[artistId[msg.sender]];\n        artistInstance.songsUploaded.push(lastSong);\n\n        idToSong[lastSong] = Song(artistInstance.aId,lastSong,_cost,_genre,block.timestamp,_name,ipfshash);\n        hashToSong[songHash] = idToSong[lastSong];\n    }\n    \n    //return use profile\n    function userDetail() external view returns(uint,string memory){\n        return (userId[msg.sender].uId,userId[msg.sender].name);\n    }\n\n    //return artistsProfile\n    function artistDetail(uint _artistId) external view returns (string memory,uint[] memory){\n        return (idToArtist[_artistId].name,idToArtist[_artistId].songsUploaded);\n    }\n\n    //return song details\n    function songDetails(uint songId) external view returns(uint _artistId,uint id,string memory name,uint cost,uint releaseDate,uint genre){\n        Song storage song = idToSong[songId];\n        id = song.sId;\n        _artistId = song.aId;\n        name = song.songName;\n        cost = song.cost;\n        genre = song.genre;\n        releaseDate = song.releaseDate;\n\n    }\n\n    //donate to artists\n    function donate(uint _artistId) public payable{\n        idToArtist[_artistId].artistAddress.transfer(msg.value);\n    }\n    \n}",
  "sourcePath": "D:/hackNIT/sotheby/contracts/Music.sol",
  "compiler": {
    "name": "solc",
    "version": "0.5.16+commit.9c3226ce.Emscripten.clang"
  },
  "schemaVersion": "3.2.3",
  "updatedAt": "2022-02-12T05:57:36.689Z",
  "networkType": "ethereum",
  "devdoc": {
    "methods": {}
  },
  "userdoc": {
    "methods": {}
  }
}